:100000000C9446000C9465000C9465000C946500FB
:100010000C9465000C9465000C9465000C946500CC
:100020000C9465000C9465000C9465000C946500BC
:100030000C9465000C940C010C9465000C94650004
:100040000C9465000C9465000C9465000C9465009C
:100050000C9465000C9465000C9465000C9465008C
:100060000C9465000C9465000C9465000C9465007C
:100070000C9465000C9465000C9465000C9465006C
:100080000C9465000C9465000C94650011241FBE4F
:10009000CFEFD0E4DEBFCDBF11E0A0E0B1E0EEEAEB
:1000A000F4E000E00BBF02C007900D92A231B1074F
:1000B000D9F721E0A2E1B1E001C01D92AB31B20756
:1000C000E1F70E9423020C9455020C940000CF9398
:1000D000DF9300D01F92CDB7DEB789837B836A831D
:1000E00089818A3031F48A819B81BC018DE00E9434
:1000F000670080EC90E0FC018081882F90E08072A6
:100100009927892BB1F386EC90E02981FC012083AB
:1001100080E090E00F900F900F90DF91CF910895C5
:10012000CF93DF9300D000D0CDB7DEB769837A8359
:100130008B839C8389819A81AB81BC8180930E01E2
:1001400090930F01A0931001B093110180910E01C3
:1001500090910F01A0911001B091110180931301B2
:1001600090931401A0931501B093160100000F9015
:100170000F900F900F90DF91CF910895CF93DF9361
:10018000CDB7DEB781E890E02BE0FC01208388E862
:1001900090E02DE730E0FC01318320838FE690E092
:1001A00022E0FC01208384E890E0FC0111821082AF
:1001B00080910E0190910F01A0911001B091110159
:1001C0008093130190931401A0931501B09316012D
:1001D0008FE590E02FE530E0F90120812068FC01F7
:1001E00020830000DF91CF910895CF93DF93CDB7A7
:1001F000DEB781E890E0FC0110820000DF91CF9132
:100200000895CF93DF93CDB7DEB781E080931201DD
:100210000000DF91CF9108951F920F9200905F0030
:100220000F92112400905B000F922F933F934F93F6
:100230005F936F937F938F939F93AF93BF93EF934E
:10024000FF93CF93DF93CDB7DEB7809113019091E9
:100250001401A0911501B09116010197A109B109EE
:100260008093130190931401A0931501B09316018C
:100270008091130190911401A0911501B091160184
:10028000892B8A2B8B2B91F40E94010180910E0106
:1002900090910F01A0911001B09111018093130171
:1002A00090931401A0931501B09316010000DF9103
:1002B000CF91FF91EF91BF91AF919F918F917F91DE
:1002C0006F915F914F913F912F910F9000925B0042
:1002D0000F9000925F000F901F901895CF93DF93BF
:1002E0001F92CDB7DEB71982809117019091180146
:1002F0008130910581F08130910530F08230910597
:1003000089F00397B1F01CC081E090E09093180150
:10031000809317011DC082E090E0909318018093B4
:10032000170116C083E090E09093180180931701A5
:100330000FC081E090E0909318018093170108C0EE
:10034000198281E090E090931801809317010000DA
:1003500080911701909118018130910549F0813009
:10036000910578F08230910531F0039739F00AC099
:1003700081E0898307C082E0898304C084E08983A7
:1003800001C0000089810F90DF91CF910895CF9334
:10039000DF931F92CDB7DEB719828091190190913A
:1003A0001A018130910569F08130910518F00297AA
:1003B00079F015C081E090E090931A0180931901C3
:1003C00016C082E090E090931A01809319010FC04B
:1003D00081E090E090931A018093190108C019827E
:1003E00081E090E090931A018093190100008091C0
:1003F000190190911A018130910531F081309105F8
:1004000040F0029719F006C0198204C088E0898381
:1004100001C0000089810F90DF91CF910895CF93A3
:10042000DF9300D0CDB7DEB789836A8385E290E0A1
:1004300039812A81232BFC01208300000F900F902B
:10044000DF91CF910895CF93DF9300D0CDB7DEB782
:1004500068EE73E080E090E00E9490000E94BE0091
:1004600084E290E02FEFFC01208385E290E0FC0124
:10047000108219821A82109218011092170110929C
:100480001A01109219010E946E0189830E94C7010E
:100490008A836A8189810E940F0200008091120183
:0E04A0008823E1F310921201EECFF894FFCF03
:1004AE0000000002000000006700000000000100D4
:0204BE0000003C
:00000001FF
