:100000000C9446000C9465000C9465000C946500FB
:100010000C9465000C9465000C9465000C946500CC
:100020000C9465000C9465000C9465000C946500BC
:100030000C9465000C940C010C9465000C94650004
:100040000C9465000C9465000C9465000C9465009C
:100050000C9465000C9465000C9465000C9465008C
:100060000C9465000C9465000C9465000C9465007C
:100070000C9465000C9465000C9465000C9465006C
:100080000C9465000C9465000C94650011241FBE4F
:10009000CFEFD0E4DEBFCDBF11E0A0E0B1E0E2EAF7
:1000A000F8E000E00BBF02C007900D92A831B10745
:1000B000D9F721E0A8E1B1E001C01D92AB32B2074F
:1000C000E1F70E94FA030C944F040C940000CF93C4
:1000D000DF9300D01F92CDB7DEB789837B836A831D
:1000E00089818A3031F48A819B81BC018DE00E9434
:1000F000670080EC90E0FC018081882F90E08072A6
:100100009927892BB1F386EC90E02981FC012083AB
:1001100080E090E00F900F900F90DF91CF910895C5
:10012000CF93DF9300D000D0CDB7DEB769837A8359
:100130008B839C8389819A81AB81BC8180931001E0
:1001400090931101A0931201B093130180911001BB
:1001500090911101A0911201B091130180931901A6
:1001600090931A01A0931B01B0931C0100000F9003
:100170000F900F900F90DF91CF910895CF93DF9361
:10018000CDB7DEB781E890E02BE0FC01208388E862
:1001900090E02DE730E0FC01318320838FE690E092
:1001A00022E0FC01208384E890E0FC0111821082AF
:1001B0008091100190911101A0911201B091130151
:1001C0008093190190931A01A0931B01B0931C0115
:1001D0008FE590E02FE530E0F90120812068FC01F7
:1001E00020830000DF91CF910895CF93DF93CDB7A7
:1001F000DEB781E890E0FC0110820000DF91CF9132
:100200000895CF93DF93CDB7DEB781E080931801D7
:100210000000DF91CF9108951F920F9200905F0030
:100220000F92112400905B000F922F933F934F93F6
:100230005F936F937F938F939F93AF93BF93EF934E
:10024000FF93CF93DF93CDB7DEB7809119019091E3
:100250001A01A0911B01B0911C010197A109B109DC
:100260008093190190931A01A0931B01B0931C0174
:100270008091190190911A01A0911B01B0911C016C
:10028000892B8A2B8B2B91F40E9401018091100104
:1002900090911101A0911201B09113018093190165
:1002A00090931A01A0931B01B0931C010000DF91F1
:1002B000CF91FF91EF91BF91AF919F918F917F91DE
:1002C0006F915F914F913F912F910F9000925B0042
:1002D0000F9000925F000F901F901895CF93DF93BF
:1002E0001F92CDB7DEB78091270190912801813010
:1002F0009105A9F08130910538F08230910569F1BE
:10030000039709F447C063C081E090E0909328010F
:100310008093270110921E0110921D0169C08091E7
:100320001D0190911E01019690931E0180931D0165
:1003300020911D0130911E018CE291E028173907B0
:100340000CF451C082E090E0909328018093270143
:1003500010921E0110921D0146C080911D019091C6
:100360001E01019690931E0180931D0120911D0195
:1003700030911E018CE291E028173907B4F183E037
:1003800090E0909328018093270110921E01109213
:100390001D012BC080911D0190911E01019690932B
:1003A0001E0180931D0120911D0130911E018CE2E0
:1003B00091E028173907DCF081E090E09093280164
:1003C0008093270110921E0110921D0110C0198206
:1003D00010921E0110921D0181E090E0909328017F
:1003E0008093270105C0000003C0000001C0000089
:1003F00080912701909128018130910549F0813049
:10040000910578F08230910531F0039739F00AC0F8
:1004100081E0898307C082E0898304C084E0898306
:1004200001C0000089810F90DF91CF910895CF9393
:10043000DF931F92CDB7DEB78091290190912A01F9
:100440008130910589F08130910518F0029749F1CA
:1004500045C081E090E090932A0180932901109299
:10046000200110921F0149C080911F01909120012D
:1004700001969093200180931F0120911F013091DC
:10048000200188EE93E028173907A4F182E090E07C
:1004900090932A01809329011092200110921F014C
:1004A00029C080911F019091200101969093200115
:1004B00080931F0120911F013091200188EE93E06D
:1004C00028173907CCF081E090E090932A018093BF
:1004D00029011092200110921F010EC0198281E0A3
:1004E00090E090932A0180932901109220011092AC
:1004F0001F0103C0000001C00000809129019091FC
:100500002A018130910531F08130910540F0029748
:1005100019F006C0198204C088E0898301C0000078
:1005200089810F90DF91CF910895CF93DF931F9230
:10053000CDB7DEB7809125019091260181309105DC
:1005400089F08130910518F0029759F149C082E095
:1005500090E0909326018093250110922201109241
:1005600021014DC08091210190912201019690932B
:10057000220180932101209121013091220180915B
:100580000E0190910F0128173907B4F182E090E035
:10059000909326018093250110922201109221014F
:1005A0002BC080912101909122010196909322010C
:1005B00080932101209121013091220180910E012F
:1005C00090910F0128173907CCF081E090E09093CB
:1005D00026018093250110922201109221010EC064
:1005E0001982109222011092210181E090E09093F3
:1005F00026018093250103C0000001C00000809106
:100600002501909126018130910531F081309105CD
:1006100040F0029721F006C080E1898303C019826F
:1006200001C0000089810F90DF91CF910895CF9391
:10063000DF931F92CDB7DEB789838091230190911C
:10064000240182309105A1F18330910528F40097AF
:1006500059F0019731F172C08330910509F445C01A
:10066000049709F449C06AC08981882F90E081709D
:100670009927892B39F081E090E0909324018093B1
:10068000230157C08981882F90E082709927892B98
:1006900009F44FC083E090E09093240180932301FC
:1006A00048C082E090E0909324018093230146C0EB
:1006B0008981882F90E081709927892B71F4898135
:1006C000882F90E082709927892B39F083E090E0A1
:1006D00090932401809323012EC08981882359F5AA
:1006E000109224011092230126C084E090E09093A0
:1006F00024018093230122C08981882F90E081709A
:100700009927892B71F08981882F90E08270992731
:10071000892B39F481E090E09093240180932301A8
:100720000CC08981882349F410922401109223017E
:1007300004C0000003C0000001C00000809123013C
:10074000909124018230910529F18330910528F49C
:10075000009711F1019721F022C0039789F01FC083
:1007600080910E0190910F010297C4F080910E01CB
:1007700090910F01019790930F0180930E010EC08D
:1007800080910E0190910F01019690930F0180933B
:100790000E0105C0000003C0000001C00000000001
:1007A0000F90DF91CF910895CF93DF9300D000D0C9
:1007B0001F92CDB7DEB78A836B834C832D839B81D9
:1007C0008C81892B89838A8186958695882321F05F
:1007D00099818D81892B898385E290E02981FC01B3
:1007E000208300000F900F900F900F900F90DF91DB
:1007F000CF910895CF93DF9300D000D0CDB7DEB76F
:1008000061E070E080E090E00E9490000E94BE00F5
:1008100081E290E0FC01108282E290E02FEFFC0187
:10082000208384E290E02FEFFC01208385E290E0BA
:10083000FC01108219821A821B821C8210922801EC
:100840001092270110922A0110922901109226017C
:1008500010922501109224011092230180E290E071
:10086000FC0180818095877089830E946E018A8354
:100870000E9417028B830E9495028C8389810E94BB
:1008800017032C814B816A8189810E94D403000067
:10089000809118018823E1F310921801DFCFF894BA
:0208A000FFCF88
:1008A20000000002000000006700000000000100DC
:0808B200010000002C01E80325
:00000001FF
