:100000000C9446000C9465000C9465000C946500FB
:100010000C9465000C9465000C9465000C946500CC
:100020000C9465000C9465000C9465000C946500BC
:100030000C9465000C940C010C9465000C94650004
:100040000C9465000C9465000C9465000C9465009C
:100050000C9465000C9465000C9465000C9465008C
:100060000C9465000C9465000C9465000C9465007C
:100070000C9465000C9465000C9465000C9465006C
:100080000C9465000C9465000C94650011241FBE4F
:10009000CFEFD0E4DEBFCDBF11E0A0E0B1E0E2E5FC
:1000A000F4E000E00BBF02C007900D92A631B1074B
:1000B000D9F721E0A6E1B1E001C01D92AB31B20752
:1000C000E1F70E94FD010C9427020C940000CF93ED
:1000D000DF9300D01F92CDB7DEB789837B836A831D
:1000E00089818A3031F48A819B81BC018DE00E9434
:1000F000670080EC90E0FC018081882F90E08072A6
:100100009927892BB1F386EC90E02981FC012083AB
:1001100080E090E00F900F900F90DF91CF910895C5
:10012000CF93DF9300D000D0CDB7DEB769837A8359
:100130008B839C8389819A81AB81BC8180930E01E2
:1001400090930F01A0931001B093110180910E01C3
:1001500090910F01A0911001B091110180931701AE
:1001600090931801A0931901B0931A0100000F9009
:100170000F900F900F90DF91CF910895CF93DF9361
:10018000CDB7DEB781E890E02BE0FC01208388E862
:1001900090E02DE730E0FC01318320838FE690E092
:1001A00022E0FC01208384E890E0FC0111821082AF
:1001B00080910E0190910F01A0911001B091110159
:1001C0008093170190931801A0931901B0931A011D
:1001D0008FE590E02FE530E0F90120812068FC01F7
:1001E00020830000DF91CF910895CF93DF93CDB7A7
:1001F000DEB781E890E0FC0110820000DF91CF9132
:100200000895CF93DF93CDB7DEB781E080931601D9
:100210000000DF91CF9108951F920F9200905F0030
:100220000F92112400905B000F922F933F934F93F6
:100230005F936F937F938F939F93AF93BF93EF934E
:10024000FF93CF93DF93CDB7DEB7809117019091E5
:100250001801A0911901B0911A010197A109B109E2
:100260008093170190931801A0931901B0931A017C
:100270008091170190911801A0911901B0911A0174
:10028000892B8A2B8B2B91F40E94010180910E0106
:1002900090910F01A0911001B0911101809317016D
:1002A00090931801A0931901B0931A010000DF91F7
:1002B000CF91FF91EF91BF91AF919F918F917F91DE
:1002C0006F915F914F913F912F910F9000925B0042
:1002D0000F9000925F000F901F901895CF93DF93BF
:1002E0001F92CDB7DEB71982809112019091130150
:1002F0008130910569F08130910518F0029779F00D
:1003000013C081E090E0909313018093120112C01A
:1003100082E090E090931301809312010BC0109241
:1003200013011092120106C019821092130110924B
:10033000120100008091120190911301813091050A
:1003400049F08130910518F0029739F009C081E039
:10035000898306C082E0898303C084E0898300002A
:1003600089810F90DF91CF910895CF93DF931F92F2
:10037000CDB7DEB7198280911401909115010097D5
:1003800019F0019741F00CC081E090E090931501C5
:10039000809314010BC0109215011092140106C035
:1003A000198210921501109214010000809114011D
:1003B00090911501009719F0019719F005C0198265
:1003C00003C088E08983000089810F90DF91CF917D
:1003D0000895CF93DF9300D0CDB7DEB789836A83CA
:1003E00085E290E039812A81232BFC0120830000E3
:1003F0000F900F90DF91CF910895CF93DF9300D0AE
:10040000CDB7DEB768EE73E080E090E00E94900028
:100410000E94BE0084E290E02FEFFC01208385E281
:1004200090E0FC01108219821A820E946E01898379
:100430000E94B5018A836A8189810E94E9010000D6
:10044000809116018823E1F310921601EECFF89403
:02045000FFCFDC
:100452000000000200000000670000000000010030
:060462000000FFFFFFFF98
:00000001FF
